:020000040800F2
:10000000F00500200101000827040008AB020008E9
:100010002304000875010008130A0008000000000E
:10002000000000000000000000000000B105000812
:100030007901000800000000990400089D060008EE
:100040001B0100081B0100081B0100081B01000820
:100050001B0100081B0100081B0100081B01000810
:100060001B0100081B0100081B0100081B01000800
:100070001B0100081B0100081B0100081B010008F0
:100080001B0100081B0100081B0100081B010008E0
:100090001B0100081B0100081B0100081B010008D0
:1000A0001B0100081B0100081B0100081B010008C0
:1000B0001B0100081B0100081B0100081B010008B0
:1000C0001B0100081B0100081B0100081B010008A0
:1000D0001B0100081B0100080D070008FD070008B0
:1000E0001B0100081B0100081B010008DFF80CD0F1
:1000F00000F02EF80048004701120008F00500202B
:100100000648804706480047FEE7FEE7FEE7FEE7B1
:10011000FEE7FEE7FEE7FEE7FEE7FEE7AD060008C6
:10012000ED000008421E12F8013F002BFBD111F830
:10013000013B02F8013B002BF9D17047034611F84F
:10014000012B00F8012B002AF9D118467047000056
:10015000064C074D06E0E06840F0010394E8070014
:1001600098471034AC42F6D3FFF7C4FF20140008C0
:100170004014000800BFFEE770472DE9F041024639
:1001800000250026002000230024002791F803C04A
:100190000CF00F0591F803C00CF0100CBCF1000F2F
:1001A00003D091F802C04CEA050591F800C0BCF1FB
:1001B000000F31D0146800202BE04FF0010C0CFA36
:1001C00000F3B1F800C00CEA03069E4220D1830080
:1001D0004FF00F0C0CFA03F7BC4305FA03FC4CEA92
:1001E000040491F803C0BCF1280F06D14FF0010CB4
:1001F0000CFA00FCC2F814C00AE091F803C0BCF18C
:10020000480F05D14FF0010C0CFA00FCC2F810C0E9
:10021000401C0828D1D31460B1F800C0BCF1FF0F16
:1002200034DD546800202EE000F1080C4FF0010886
:1002300008FA0CF3B1F800C00CEA03069E4221D183
:1002400083004FF00F0C0CFA03F7BC4305FA03FCD4
:100250004CEA040491F803C0BCF1280F05D100F169
:10026000080C08FA0CF8C2F8148091F803C0BCF12D
:10027000480F07D100F1080C4FF0010808FA0CF8FC
:10028000C2F81080401C0828CED35460BDE8F0812D
:100290000246002093680B400BB1012000E00020D3
:1002A0007047416170470161704700BFFEE770B55C
:1002B00002460024002500230020958A138B1B048E
:1002C00045EA030626F07F4404EA01068E4201D186
:1002D000012000E0002070BD21B1028842F001023F
:1002E000028004E002884FF6FE731A4002807047D5
:1002F00021B1028842F48072028004E002884FF645
:10030000FF631A400280704721B1028842F40072F4
:10031000028004E002884FF6FF531A4002807047C3
:100320002DE9F04385B004460D460026B14604276A
:10033000DFF8CC80A6884FF6C0700640684600F013
:10034000CDF8DDF808802F48B8FBF0F01FFA80F9EF
:1003500046EA0906A68020884FF6FE7108402080F4
:1003600000262949286888420CD828684000B8FB34
:10037000F0F087B2042F00DA04273E4309F10100B0
:10038000208427E0E8884BF6FF71884206D1286870
:1003900000EB4000B8FBF0F087B209E0286800EB02
:1003A000C00101EB0010B8FBF0F087B247F48047C2
:1003B000C7F30B0008B947F0010747F400400643B4
:1003C0004FF4967009FB00F04FF47A7190FBF1F056
:1003D000401C2084A683208840F0010020802688CD
:1003E0004FF6F5300640A888698908430643268001
:1003F000A88929890843208105B0BDE8F083000061
:1004000000127A0040420F00A086010012B141F0B4
:10041000010102E04FF6FE7319400182704701822C
:10042000704700BFFEE7704770B5002100230F2220
:10043000C47804B3154C246804F4E064C4F5E064A3
:10044000210AC1F10403CA40447804FA03F1847814
:100450001440214309010E4C0678A155047804F09C
:100460001F050124AC4005786D11AD0005F1E025B4
:10047000C5F8004109E0047804F01F050124AC40F0
:10048000044D0678761145F8264070BD0CED00E06D
:1004900000E400E080E100E07047000029B1064A76
:1004A000D2690243044BDA6104E0034AD269824311
:1004B000014BDA61704700000010024029B1064A82
:1004C00092690243044B9A6104E0034A92698243B1
:1004D000014B9A61704700000010024030B50021C6
:1004E0000022002400232D4D6D6805F00C0121B180
:1004F000042905D0082923D105E0294D056022E013
:10050000274D05601FE0254D6D6805F47012234DE1
:100510006D6805F48034022505EB92421CB9214D2B
:10052000554305600BE01D4D6D6805F400351DB1A8
:100530001C4D5543056002E0194D5543056002E02E
:10054000174D056000BF00BF144D6D6805F0F00148
:100550000909154D6B5C0568DD4045600F4D6D6800
:1005600005F4E061090A104D6B5C4568DD4085606B
:100570000A4D6D6805F46051C90A0B4D6B5C456806
:10058000DD40C560054D6D6805F44041890B074DA0
:100590006B5CC568B5FBF3F5056130BD001002402A
:1005A00000127A0000093D00000000201000002029
:1005B000704710B500F002F810BD00000CB5002027
:1005C000019000903348006840F480303149086061
:1005D00000BF3048006800F4003000900198401CD3
:1005E0000190009818B90198B0F5A06FF1D1294891
:1005F000006800F4003010B10120009001E00020FC
:1006000000900098012843D12348006840F0100072
:10061000214908600846006820F003000860084689
:10062000006840F0020008601A48406819494860B4
:100630000846406848600846406840F4806048606A
:100640000846406820F47C1048600846406840F442
:10065000E81048600846006840F08070086000BFFD
:100660000C48006800F000700028F9D00948406884
:1006700020F00300074948600846406840F0020047
:10068000486000BF0348406800F00C000828F9D11A
:100690000CBD00000010024000200240024800682B
:1006A000401E0149086070471800002010B513482B
:1006B000006840F001001149086008464068104990
:1006C00008400E494860084600680E4908400B493A
:1006D00008600846006820F48020086008464068EA
:1006E00020F4FE0048604FF41F008860FFF761FFB0
:1006F0004FF000600449086010BD00000010024087
:100700000000FFF8FFFFF6FE08ED00E010B540F234
:100710002551334800F0B8F800285FD0304800F089
:100720006FF9C4B20A2C24D00D2C12D04B2C05D05A
:100730004F2C32D101202B49087036E0294800782F
:1007400018B101202849087002E0002025490870EE
:100750002BE02548007830B12248007818B10120FC
:100760002249087004E000201E4908701E490870E4
:100770001BE01D48007878B11A48007860B11B482A
:10078000007848B1002018490870164908701749C8
:10079000087001201649087007E00020124908700F
:1007A000104908701149087000BF00BF1048007858
:1007B00040B9104801780078401C0E4A10700E486D
:1007C000445403E00C480B49097844540948007824
:1007D000642802D100200749087000BF10BD000046
:1007E00000440040220000202300002024000020BC
:1007F0001D0000201C0000204000002010B540F229
:1008000025510D4800F040F8A8B10B4800F0F8F869
:10081000C4B20A2C07D0094801780078401C074A66
:1008200010700748445405480078642802D100201D
:100830000249087000BF10BD004800401C000020A5
:100840004000002001F40072B2F5007F00D100BF2B
:10085000CA430280704721B1828942F400528281EA
:1008600004E082894DF6FF731A4082817047024688
:100870000020B1F5007F00D100BF13880B400BB101
:10088000012000E00020704770B5024600240023DC
:100890000025002040F66A16B14200D100BFC1F326
:1008A000421501F01F03012606FA03F3012D02D1C0
:1008B0009689334006E0022D02D1168A334001E0CA
:1008C000968A33400C12012606FA04F41688344046
:1008D00013B10CB1012000E0002070BDF0B503465B
:1008E000002400260025002040F66A17B94200D1F6
:1008F00000BF1846C1F3421401F01F06012707FA92
:1009000006F5012C01D10C3004E0022C01D110308D
:1009100000E014301AB107682F43076002E007684F
:10092000AF430760F0BD00002DE9F04786B00546F3
:100930000E460024A24600BFA1460027B08900B1A0
:1009400000BF2F462C8A4CF6FF700440F088044309
:100950002C82AC894EF6F3100440B08831890843EC
:10096000718908430443AC81AC8A4FF6FF400440D0
:10097000B0890443AC8201A8FFF7B0FD1F4887424D
:1009800002D1DDF810A001E0DDF80CA0A88900F488
:10099000004040B10AEBCA0000EB0A103168490080
:1009A000B0FBF1F807E00AEBCA0000EB0A1031686F
:1009B0008900B0FBF1F86420B8FBF0F004012009D5
:1009C000642101FB1089A88900F4004040B1322065
:1009D00000EBC900B0FBF1F000F00700044308E0B1
:1009E000322000EB09106421B0FBF1F000F00F00A1
:1009F00004432C8106B0BDE8F087000000380140B8
:100A000001468888C0F308007047C1F3080282805D
:100A1000704700BFFEE702E008C8121F08C1002AA5
:100A2000FAD170477047002001E001C1121F002A6F
:100A3000FBD1704710B56E2402E000F02BF804469D
:100A40006E2CFAD0204610BD10B501210420FFF70E
:100A500035FD01210820FFF731FD10200A49C8703B
:100A600041F683000880012088700848FFF785FB65
:100A700048200549C8704FF47040088001208870F4
:100A80000348FFF77AFB10BD140000200008014066
:100A9000000C014010B54FF48051AB48FFF701FC4A
:100AA00040F60301A848FFF7FEFB4FF40041A748BA
:100AB000FFF7EEFB60B9FA2000F092FA00BF4FF4A6
:100AC0000041A248FFF7E4FB0028F8D0312010BD18
:100AD0004FF480419D48FFF7DBFB60B9FA2000F03E
:100AE0007FFA00BF4FF480419848FFF7D1FB002800
:100AF000F8D03220EBE74FF400519448FFF7C8FBE1
:100B000060B9FA2000F06CFA00BF4FF400518F4832
:100B1000FFF7BEFB0028F8D03320D8E74FF4805110
:100B20008A48FFF7B5FB60B9FA2000F059FA00BF18
:100B30004FF480518548FFF7ABFB0028F8D04120E7
:100B4000C5E74FF400618048FFF7ABFB41F20301BA
:100B50007D48FFF7A8FB4FF400417C48FFF798FB66
:100B600060B9FA2000F03CFA00BF4FF4004177482A
:100B7000FFF78EFB0028F8D03420A8E74FF480411F
:100B80007248FFF785FB60B9FA2000F029FA00BF30
:100B90004FF480416D48FFF77BFB0028F8D03520EB
:100BA00095E74FF400516948FFF772FB60B9FA20EE
:100BB00000F016FA00BF4FF400516448FFF768FBDD
:100BC0000028F8D0362082E74FF480515F48FFF7C5
:100BD0005FFB60B9FA2000F003FA00BF4FF48051C8
:100BE0005A48FFF755FB0028F8D042206FE7022152
:100BF0005548FFF756FB41F601015348FFF753FBF9
:100C00004FF400415148FFF743FB60B9FA2000F070
:100C1000E7F900BF4FF400414C48FFF739FB0028CB
:100C2000F8D0372053E74FF480414848FFF730FBB6
:100C300060B9FA2000F0D4F900BF4FF48041434876
:100C4000FFF726FB0028F8D0382040E74FF400518A
:100C50003E48FFF71DFB60B9FA2000F0C1F900BF64
:100C60004FF400513948FFF713FB0028F8D0392022
:100C70002DE74FF480513548FFF70AFB60B9FA20A1
:100C800000F0AEF900BF4FF480513048FFF700FB91
:100C90000028F8D043201AE701212B48FFF701FB79
:100CA00041F602012848FFF7FEFA4FF400412748B9
:100CB000FFF7EEFA60B9FA2000F092F900BF4FF4A6
:100CC00000412248FFF7E4FA0028F8D02A20FEE687
:100CD0004FF480411D48FFF7DBFA60B9FA2000F0BD
:100CE0007FF900BF4FF480411848FFF7D1FA002880
:100CF000F8D03020EBE64FF400511448FFF7C8FA63
:100D000060B9FA2000F06CF900BF4FF400510F48B1
:100D1000FFF7BEFA0028F8D02320D8E64FF4805120
:100D20000A48FFF7B5FA60B9FA2000F059F900BF98
:100D30004FF480510548FFF7ABFA0028F8D0442063
:100D4000C5E66E20C3E6000000080140000C01402B
:100D500010B5012000F0F2F80A2000F041F910BDB2
:100D600070B506460C46012E03D1E0B240F0800576
:100D700004E004F14000C0B240F08005284600F0D5
:100D8000DDF870BD10B501214805FFF787FB012193
:100D90000820FFF793FBC0200F49088003208870CC
:100DA0001C20C8700D48FFF7E8F900200C49888026
:100DB0004BF6FF70C8800020088148814FF48040C6
:100DC0008881084808600848FFF7AAFA0121064808
:100DD000FFF782FA10BD000014000020000C014053
:100DE000D0010020A08601000054004010B5FFF79C
:100DF000C9FF142000F0F4F8332000F09FF80A2017
:100E000000F0EEF8322000F099F80A2000F0E8F83F
:100E1000282000F093F80A2000F0E2F8062000F005
:100E20008DF80A2000F0DCF80E2000F087F80A2088
:100E300000F0D6F8022000F081F80A2000F0D0F887
:100E4000FFF786FF10BDF8B5FFF782FF00260A27DF
:100E50000024F02000EA071544F004008DF800009B
:100E60008DF8014045F004008DF802008DF8035024
:100E700000BF05E01DF8060000F02AF8701CC6B29D
:100E8000042EF7DBF8BDF8B5FFF762FF00240E274C
:100E90000025F02000EA071645F00C008DF8000050
:100EA00045F008008DF8010046F00C008DF80200B6
:100EB00046F008008DF8030000BF05E01DF80400AF
:100EC00000F006F8601CC4B2042CF7DBF8BD00008B
:100ED00010B5044601211348FFF70AFA00BF124972
:100EE0001048FFF7E4F90028F9D000224E210D4800
:100EF000FFF78CFA00BF0D490A48FFF7D8F9002820
:100F0000F9D021460748FFF78AFA00BF0749891C34
:100F10000448FFF7CCF90028F8D001210148FFF779
:100F2000F3F910BD005400400100030082000700E7
:100F300010B50446204600F024F810BDF8B504466C
:100F4000002504F0F006F02000EA041746F00C003B
:100F50008DF8000046F008008DF8010047F00C0005
:100F60008DF8020047F008008DF8030000BF05E08F
:100F70001DF80500FFF7ACFF681CC5B2042DF7DBB8
:100F8000F8BDF8B50446002504F0F006F02000EAAC
:100F9000041746F00D008DF8000046F009008DF8AA
:100FA000010047F00D008DF8020047F009008DF8B0
:100FB000030000BF05E01DF80500FFF789FF681C6E
:100FC000C5B2042DF7DBF8BD10B5044603E014F8F4
:100FD000010BFFF7D6FF20780028F8D110BD0000E4
:100FE0000349086000BF024909680029FBD1704726
:100FF0001800002070B504460D4600BF8021284629
:10100000FFF735FC0028F9D021462846FFF7FDFC04
:1010100070BD70B504460D4604E014F8010B294676
:10102000FFF7E8FF20780028F7D170BD10B5012147
:101030000420FFF743FA01214804FFF72FFA0420A8
:101040001C4908801820C870032088701A48FFF7D0
:1010500094F80820174908800420C8701648FFF744
:101060008CF84FF4E1301549086000208880C88072
:10107000088188810C2048811148FFF755FC262003
:10108000104908700020887048700120C870084618
:10109000FFF7CAF940F225510948FFF7D3FB0122B7
:1010A00040F225510648FFF719FC01210448FFF7DB
:1010B000D2FB10BD1400002000080140E001002018
:1010C000004400403C00002008B501211020FFF73B
:1010D000F5F910208DF803004002ADF80000032060
:1010E0008DF8020069461248FFF747F84FF40051A7
:1010F0000F48FFF7D6F86420FFF772FF4FF4005156
:101100000B48FFF7D0F86420FFF76AFF4FF4005157
:101110000748FFF7C6F86420FFF762FF4FF400515D
:101120000348FFF7C0F86420FFF75AFF08BD00002E
:101130000010014070B504460E461546284600F0E2
:1011400055F821462846FEF7EDFF06A12846FEF792
:10115000E9FF31462846FEF7E5FF02A12846FEF7E3
:10116000E1FF70BD2100000010B5FFF7F1FD002187
:101170000120FFF7F5FD05A0FFF726FF0021022063
:10118000FFF7EEFD05A0FFF71FFF10BD53656E646E
:1011900020697420746F204553503F00413A205914
:1011A0004553202020423A204E4F000010B5FFF753
:1011B000CFFD00210120FFF7D3FD07A0FFF704FFBB
:1011C00000210220FFF7CCFD06A0FFF7FDFE0A215B
:1011D0000120FFF7C5FD10BD456C6563747269633E
:1011E0003A20000057617465723A2000002102E045
:1011F00000224254491C425C002AF9D17047000089
:101200009AB0754800684FF47A72B0FBF2F1B1F110
:10121000807F00D31DE021F07F40401E4FF0E02290
:10122000506150170F22002807DA13071D0E6B4B71
:1012300000F00F04241F1D5503E013071C0E684B1C
:101240001C5400BF00204FF0E02290610720106185
:1012500000BFFFF739FFFFF7E9FEFFF7F5FBFFF7E8
:10126000C5FDFFF7A3FFB6E0FFF7E4FB5D4908709B
:101270000846007842286AD006DC232875D02A2840
:1012800074D0412873D106E0432873D0442872D02B
:101290006E28F7D189E05448007888B953495448FA
:1012A000FEF74CFF5148FFF7A1FF0A210220FFF78C
:1012B00057FD00204F49087001204B49087045E058
:1012C00049480078012841D148494B48FEF736FF8C
:1012D0004648FFF78BFF002046490870FFF744FFA0
:1012E00000BFFFF7A7FB3F49087008460078412878
:1012F00012D101AA40493E48FFF71CFF3F4901A80F
:10130000FFF787FEFFF724FD3DA0FFF75DFE4FF4DA
:10131000FA70FFF765FE0CE032480078422808D1E9
:10132000FFF716FD39A0FFF74FFE4FF4FA70FFF7F5
:1013300057FE2C480078412803D02A4800784228DC
:10134000CFD1FFF733FF00202749087042E027483C
:10135000FFF74CFF002027490870FFF7F9FC002039
:1013600021490870FFF722FF34E020E01EE01FE073
:1013700000E000E02EE02948007838B9FFF783FD4F
:10138000012026490870FFF711FF04E0FFF75BFD1D
:101390000020224908700020134908701348FFF705
:1013A00025FF00201349087014E013E012E011E05B
:1013B0001A48007868B10B480078FFF7B9FD094872
:1013C00001780C4802780078401C0A4B18700748D6
:1013D000815400BF00BF47E72800002018ED00E05F
:1013E00000E400E01E000020210000206C0100202D
:1013F000A40000202000002008010020004400403C
:1014000053656E64696E672E2E2E000043616E6315
:10141000656C696E672E2E2E000000001F000020F4
:10142000401400080000002040000000160A0008D8
:101430008014000840000020B0050000260A0008C3
:10144000000000000102030401020304060708096A
:101450000204060800000000000000000000000177
:10146000000000000000000000A24A04000000008C
:101470000000000001020304060708090000000044
:04000005080000ED02
:00000001FF
